:020000040800F2
:10000000000005206D690008016900080369000807
:100010000569000807690008096900080000000078
:100020000000000000000000000000000B69000854
:100030000D690008000000000F6900081169000840
:10004000BD690008BD690008BD690008BD690008F8
:10005000BD690008BD690008BD690008BD690008E8
:10006000BD690008BD690008BD690008BD690008D8
:10007000BD690008BD690008BD690008BD690008C8
:10008000BD690008BD690008BD690008BD690008B8
:10009000BD690008BD690008BD690008BD690008A8
:1000A000BD690008BD690008BD690008BD69000898
:1000B000BD690008BD690008BD690008BD69000888
:1000C000BD690008BD690008BD690008BD69000878
:1000D000BD690008BD690008BD690008BD69000868
:1000E000BD690008BD690008BD690008BD69000858
:1000F000BD690008BD690008BD690008BD69000848
:10010000BD690008BD690008BD690008BD69000837
:10011000BD690008BD690008BD690008BD69000827
:10012000BD690008BD690008BD690008BD69000817
:10013000BD690008BD690008BD690008BD69000807
:10014000BD690008BD690008BD690008BD690008F7
:10015000BD690008BD690008BD690008BD690008E7
:10016000BD690008BD690008BD690008BD690008D7
:10017000BD690008BD690008BD69000800000000F5
:10018000BD690008BD690008BD690008BD690008B7
:10019000BD690008BD690008BD690008BD690008A7
:1001A000BD690008BD690008BD690008BD69000897
:1001B000BD690008BD690008BD690008BD69000887
:0801C000BD690008BD690008DB
:1001D00010B5054C237833B9044B13B10448AFF381
:1001E00000800123237010BDCC0600200000000019
:1001F00014D3010808B5034B1BB103490348AFF3FF
:10020000008008BD00000000D006002014D30108C3
:1002100081F0004102E000BF83F0004330B54FEAB7
:1002200041044FEA430594EA050F08BF90EA020F24
:100230001FBF54EA000C55EA020C7FEA645C7FEAB7
:10024000655C00F0E2804FEA5454D4EB5555B8BFDA
:100250006D420CDD2C4480EA020281EA030382EA4B
:10026000000083EA010180EA020281EA0303362DDD
:1002700088BF30BD11F0004F4FEA01314FF4801CB0
:100280004CEA113102D0404261EB410113F0004FC2
:100290004FEA03334CEA133302D0524263EB430379
:1002A00094EA050F00F0A780A4F10104D5F1200E17
:1002B0000DDB02FA0EFC22FA05F2801841F1000172
:1002C00003FA0EF2801843FA05F359410EE0A5F146
:1002D00020050EF1200E012A03FA0EFC28BF4CF077
:1002E000020C43FA05F3C01851EBE37101F000452D
:1002F00007D54FF0000EDCF1000C7EEB00006EEB3A
:100300000101B1F5801F1BD3B1F5001F0CD34908C3
:100310005FEA30004FEA3C0C04F101044FEA44521A
:1003200012F5800F80F09A80BCF1004F08BF5FEAA1
:10033000500C50F1000041EB045141EA050130BD81
:100340005FEA4C0C404141EB010111F4801FA4F124
:100350000104E9D191F0000F04BF01460020B1FA79
:1003600081F308BF2033A3F10B03B3F120020CDAB1
:100370000C3208DD02F1140CC2F10C0201FA0CF08F
:1003800021FA02F10CE002F11402D8BFC2F1200CF4
:1003900001FA02F120FA0CFCDCBF41EA0C019040AA
:1003A000E41AA2BF01EB0451294330BD6FEA0404F3
:1003B0001F3C1CDA0C340EDC04F11404C4F12002DE
:1003C00020FA04F001FA02F340EA030021FA04F3F0
:1003D00045EA030130BDC4F10C04C4F1200220FA47
:1003E00002F001FA04F340EA0300294630BD21FA85
:1003F00004F0294630BD94F0000F83F4801306BF4B
:1004000081F480110134013D4EE77FEA645C18BF3E
:100410007FEA655C29D094EA050F08BF90EA020FD5
:1004200005D054EA000C04BF1946104630BD91EACD
:10043000030F1EBF0021002030BD5FEA545C05D1D0
:100440004000494128BF41F0004130BD14F580040F
:100450003CBF01F5801130BD01F0004545F0FE4183
:1004600041F470014FF0000030BD7FEA645C1ABFB8
:10047000194610467FEA655C1CBF0B46024650EAEF
:10048000013406BF52EA033591EA030F41F400211B
:1004900030BD00BF90F0000F04BF0021704730B5A1
:1004A0004FF4806404F132044FF000054FF0000176
:1004B00050E700BF90F0000F04BF0021704730B537
:1004C0004FF4806404F1320410F0004548BF40420C
:1004D0004FF000013EE700BF42004FEAE2014FEA61
:1004E00031014FEA02701FBF12F07F4393F07F4F3C
:1004F00081F06051704732F07F4208BF704793F03F
:100500007F4F04BF41F40021704730B54FF4607451
:1005100001F0004521F000411CE700BF50EA010254
:1005200008BF704730B54FF000050AE050EA0102FD
:1005300008BF704730B511F0004502D5404261EB6D
:1005400041014FF4806404F132045FEA915C3FF4AE
:10055000D8AE4FF003025FEADC0C18BF03325FEA4B
:10056000DC0C18BF033202EBDC02C2F1200300FAFC
:1005700003FC20FA02F001FA03FE40EA0E0021FA21
:1005800002F11444BDE600BF70B54FF0FF0C4CF40F
:10059000E06C1CEA11541DBF1CEA135594EA0C0FC1
:1005A00095EA0C0F00F0DEF82C4481EA030621EAFC
:1005B0004C5123EA4C5350EA013518BF52EA033537
:1005C00041F4801143F4801338D0A0FB02CE4FF0E9
:1005D0000005E1FB02E506F00042E0FB03E54FF019
:1005E0000006E1FB03569CF0000F18BF4EF0010E11
:1005F000A4F1FF04B6F5007F64F5407404D25FEA0D
:100600004E0E6D4146EB060642EAC62141EA5551BF
:100610004FEAC52040EA5E504FEACE2EB4F1FD0C01
:1006200088BFBCF5E06F1ED8BEF1004F08BF5FEA7F
:10063000500E50F1000041EB045170BD06F0004631
:1006400046EA010140EA020081EA0301B4EB5C04DE
:10065000C2BFD4EB0C0541EA045170BD41F48011D6
:100660004FF0000E013C00F3AB8014F1360FDEBFFB
:10067000002001F0004170BDC4F10004203C35DAD7
:100680000C341BDC04F11404C4F1200500FA05F35A
:1006900020FA04F001FA05F240EA020001F00042FB
:1006A00021F0004110EBD37021FA04F642EB060171
:1006B0005EEA430E08BF20EAD37070BDC4F10C049B
:1006C000C4F1200500FA04F320FA05F001FA04F25F
:1006D00040EA020001F0004110EBD37041F100014B
:1006E0005EEA430E08BF20EAD37070BDC4F1200556
:1006F00000FA05F24EEA020E20FA04F301FA05F2BE
:1007000043EA020321FA04F001F0004121FA04F265
:1007100020EA020000EBD3705EEA430E08BF20EA35
:10072000D37070BD94F0000F0FD101F0004640006F
:1007300041EB010111F4801F08BF013CF7D041EAF1
:10074000060195F0000F18BF704703F000465200F5
:1007500043EB030313F4801F08BF013DF7D043EAC6
:100760000603704794EA0C0F0CEA135518BF95EA7C
:100770000C0F0CD050EA410618BF52EA4306D1D103
:1007800081EA030101F000414FF0000070BD50EA22
:10079000410606BF1046194652EA430619D094EAAC
:1007A0000C0F02D150EA013613D195EA0C0F05D196
:1007B00052EA03361CBF104619460AD181EA0301EA
:1007C00001F0004141F0FE4141F470014FF00000A2
:1007D00070BD41F0FE4141F4780170BD70B54FF03D
:1007E000FF0C4CF4E06C1CEA11541DBF1CEA1355BD
:1007F00094EA0C0F95EA0C0F00F0A7F8A4EB05049F
:1008000081EA030E52EA03354FEA013100F0888095
:100810004FEA03334FF0805545EA131343EA12635E
:100820004FEA022245EA111545EA10654FEA002613
:100830000EF000419D4208BF964244F1FD0404F5CC
:10084000407402D25B084FEA3202B61A65EB030528
:100850005B084FEA32024FF480104FF4002CB6EBE5
:10086000020E75EB030E22BFB61A754640EA0C0065
:100870005B084FEA3202B6EB020E75EB030E22BFA5
:10088000B61A754640EA5C005B084FEA3202B6EBE6
:10089000020E75EB030E22BFB61A754640EA9C00A5
:1008A0005B084FEA3202B6EB020E75EB030E22BF75
:1008B000B61A754640EADC0055EA060E18D04FEA33
:1008C000051545EA16754FEA06164FEAC30343EAD3
:1008D00052734FEAC2025FEA1C1CC0D111F4801FA0
:1008E0000BD141EA00014FF000004FF0004CB6E799
:1008F00011F4801F04BF01430020B4F1FD0C88BF38
:10090000BCF5E06F3FF6AFAEB5EB030C04BFB6EB42
:10091000020C5FEA500C50F1000041EB045170BD35
:100920000EF0004E4EEA113114EB5C04C2BFD4EB62
:100930000C0541EA045170BD41F480114FF0000EE6
:10094000013C90E645EA060E8DE60CEA135594EA62
:100950000C0F08BF95EA0C0F3FF43BAF94EA0C0F65
:100960000AD150EA01347FF434AF95EA0C0F7FF4DA
:1009700025AF104619462CE795EA0C0F06D152EA2E
:1009800003353FF4FDAE1046194622E750EA410612
:1009900018BF52EA43067FF4C5AE50EA41047FF423
:1009A0000DAF52EA43057FF4EBAE12E74FEA410286
:1009B00012F5001215D211D56FF47873B3EB6252B1
:1009C00012D94FEAC12343F0004343EA505311F0D8
:1009D000004F23FA02F018BF404270474FF000006A
:1009E000704750EA013005D111F0004008BF6FF0A8
:1009F000004070474FF00000704700BF4FEA4102CF
:100A0000B2F1E04324BFB3F5001CDCF1FE5C0DD96C
:100A100001F0004C4FEAC0024CEA5070B2F1004FB6
:100A200040EB830008BF20F00100704711F0804FB9
:100A300021D113F13872BCBF01F00040704741F47E
:100A400080114FEA5252C2F11802C2F1200C10FA82
:100A50000CF320FA02F018BF40F001004FEAC12366
:100A60004FEAD32303FA0CFC40EA0C0023FA02F30A
:100A70004FEA4303CCE77FEA625307D150EA0133E0
:100A80001EBF4FF0FE4040F44000704701F00040B0
:100A900040F0FE4040F40000704700BF53B94AB92F
:100AA000002908BF00281CBF4FF0FF314FF0FF3076
:100AB00000F072B9ADF1080C6DE904CE00F006F853
:100AC000DDF804E0DDE9022304B070472DE9F047CA
:100AD000089E04468846002B4BD18A42154667D9AA
:100AE000B2FA82F24AB1C2F1200701FA02F320FA07
:100AF00007F7954047EA030894404FEA154E230C48
:100B0000B8FBFEF71FFA85FC0EFB178843EA084383
:100B100007FB0CF1994209D9EB1807F1FF3080F07F
:100B20001B81994240F21881023F2B445B1AA4B208
:100B3000B3FBFEF00EFB103344EA034400FB0CFC55
:100B4000A44509D92C1900F1FF3380F00781A44591
:100B500040F2048102382C4440EA0740A4EB0C0424
:100B600000271EB1D4400023C6E900433946BDE842
:100B7000F0878B4209D9002E00F0EB800027C6E9F0
:100B8000000138463946BDE8F087B3FA83F7002FF5
:100B900047D18B4202D3824200F2FA80841A61EB81
:100BA000030301209846002EE0D0C6E90048DDE7A7
:100BB00002B9FFDEB2FA82F2002A40F08F80491BB0
:100BC0004FEA154E1FFA85F80127B1FBFEFC230CF6
:100BD0000EFB1C1143EA014308FB0CF1994207D9B3
:100BE000EB180CF1FF3002D2994200F2CD8084461E
:100BF000591AA3B2B1FBFEF00EFB101443EA0444F1
:100C000008FB00F8A04507D92C1900F1FF3302D2E8
:100C1000A04500F2B6801846A4EB080440EA0C4058
:100C20009FE7C7F1200CBB4022FA0CFE4EEA030EF0
:100C300001FA07F420FA0CF521FA0CF34FEA1E48EA
:100C40002543B3FBF8F92C0C08FB19331FFA8EFA75
:100C500044EA034309FB0AF49C4202FA07F200FA51
:100C600007F10BD91EEB030309F1FF3080F08780F9
:100C70009C4240F28480A9F1020973441B1BADB26F
:100C8000B3FBF8F008FB103345EA034400FB0AFA13
:100C9000A24508D91EEB040400F1FF336BD2A24534
:100CA00069D90238744440EA0940A0FB0289A4EBE8
:100CB0000A044C45C2464B4654D351D0002E69D04D
:100CC000B1EB0A0564EB030404FA0CFCFD40FC40A4
:100CD0004CEA0505C6E90054002747E7C2F12003A6
:100CE00020FA03F7954001FA02F021FA03F34FEAE4
:100CF000154E3843010CB3FBFEF71FFA85F80EFBC7
:100D0000173341EA034107FB08F38B4204FA02F46C
:100D100007D9691807F1FF3C2FD28B422DD9023F2A
:100D20002944CB1A81B2B3FBFEF00EFB103341EA2B
:100D3000034100FB08F38B4207D9691800F1FF3C1F
:100D400017D28B4215D902382944C91A40EA0747FD
:100D50003BE73746304609E70746E7E61846FBE635
:100D60004145ABD2B8EB020A69EB0E0201381346DB
:100D7000A4E76046E9E7184695E76746D1E781466C
:100D80007CE702382C4447E7ACF1020C2B442FE7F8
:100D9000384608E73746E9E6704700BF034613F8D0
:100DA000012B002AFBD1181A0138704700000000FF
:100DB00001F0FF01102A2BDB10F0070F08D010F80C
:100DC000013B013A8B422DD010F0070F42B3F6D110
:100DD000F0B441EA012141EA014122F007047FF029
:100DE00000070023F0E80256083C85EA010586EA80
:100DF000010685FA47F5A3FA87F586FA47F6A5FABC
:100E000087F68EB9EED1F0BC01F0FF0102F00702C7
:100E100032B110F8013B013A83EA010313B1F8D172
:100E20000020704701387047002D06BF3546033853
:100E3000073815F0010F07D1013015F4807F02BF8C
:100E4000013015F4C03F0130F0BC0138704700BFDD
:100E50004FF0FF3C06E000BF4FF0010C02E000BF86
:100E60004FF0010C4DF804CD4FEA410C7FEA6C5C69
:100E70004FEA430C18BF7FEA6C5C1BD001B050EA0C
:100E8000410C0CBF52EA430C91EA030F02BF90EAF7
:100E9000020F0020704710F1000F91EA030F58BFB6
:100EA000994208BF90422CBFD8176FEAE37040F018
:100EB000010070474FEA410C7FEA6C5C02D150EAB6
:100EC000013C07D14FEA430C7FEA6C5CD6D152EA71
:100ED000033CD3D05DF8040B704700BF8446104636
:100EE00062468C461946634600E000BF01B5FFF735
:100EF000B7FF002848BF10F1000F01BD4DF808ED05
:100F0000FFF7F4FF0CBF012000205DF808FB00BFD5
:100F10004DF808EDFFF7EAFF34BF012000205DF82F
:100F200008FB00BF4DF808EDFFF7E0FF94BF01207C
:100F300000205DF808FB00BF4DF808EDFFF7CEFF7D
:100F400094BF012000205DF808FB00BF4DF808EDBC
:100F5000FFF7C4FF34BF012000205DF808FB00BF8D
:100F60004A0011D212F5001211D20DD56FF4787328
:100F7000B3EB62520ED44FEAC12343F0004343EA7D
:100F8000505323FA02F070474FF00000704750EAC8
:100F9000013002D14FF0FF3070474FF00000704732
:100FA0002DE9F0438BB0364B1A6B42F480521A6332
:100FB0001A6B02F480520192019A1A6B42F01002ED
:100FC0001A631A6B02F010020292029A1A6B42F034
:100FD00020021A631A6B02F020020392039A1A6B22
:100FE00042F040021A631B6B03F040030493049B1E
:100FF000244C00224FF47841204600F013FCDFF827
:1010000088900022FF21484600F00CFCDFF87C802D
:1010100000224FF47F41404600F004FC4FF4784337
:10102000059301270697002607960325089505A92D
:10103000204600F007FBFF230593069707960895C7
:1010400005A9484600F0FEFA4FF47F430593069742
:101050000796089505A9404600F0F4FA4FF40053AE
:10106000A3614FF40063A3614FF48053A3614FF475
:101070000043A3614FF48043A3610BB0BDE8F0834C
:1010800000380240001402400018024000100240E4
:1010900010B4C34311494FF07F428A61104A4FF0A8
:1010A000005494614FF0004494611B0403F47F03E7
:1010B000C4B223430B4CA3614B6900F47F40184337
:1010C00048614FF0006393614FF4006393614FF404
:1010D000005393615DF8044B704700BF001002405D
:1010E000001402400018024010B4C34311494FF0ED
:1010F0007F428A61104A4FF0005494614FF40044DB
:1011000094611B0403F47F03C4B223430B4CA3611B
:101110004B6900F47F40184348614FF000639361CE
:101120004FF4006393614FF4005393615DF8044BF7
:10113000704700BF00100240001402400018024037
:1011400038B505460C4604E035F8020BFFF7CCFF36
:10115000013C002CF8D138BD10B5544C4FF0804301
:10116000A3614FF4FA7000F0EBF94FF48043A361F0
:10117000642000F0E5F90120FFF78AFF0A2000F063
:10118000DFF9E220FFF784FF1D20FFF7ADFF02200B
:10119000FFF7AAFF0420FFF7A7FFE020FFF778FF83
:1011A0000120FFF7A1FF642000F0CAF9E020FFF75B
:1011B0006FFF0320FFF798FFB020FFF769FF2020A3
:1011C000FFF792FF0020FFF78FFF0120FFF78CFF52
:1011D000DF20FFF789FF0120FFF786FF0F20FFF7D1
:1011E00083FF0020FFF780FFF020FFF751FF03206F
:1011F000FFF77AFFE620FFF74BFF0120FFF774FFB0
:101200007520FFF771FFED20FFF76EFFB420FFF7A9
:101210003FFF0220FFF768FF1420FFF765FF002063
:10122000FFF762FF2C20FFF75FFF0220FFF75CFF54
:101230000020FFF759FF0020FFF756FF0020FFF7BF
:1012400053FFB620FFF724FF0120FFF74DFF1E20BC
:10125000FFF74AFF0020FFF747FF0C20FFF744FF8E
:101260000620FFF741FF0020FFF73EFF0020FFF7B9
:101270003BFF2920FFF70CFF0A2000F061F9BE2098
:10128000FFF706FF0420FFF72FFFC020FFF72CFF1A
:101290000120FFF729FF4020FFF726FF0020FFF77E
:1012A00023FF0020FFF720FF10BD00BF0014024005
:1012B00084B008B50DF1080C8CE80F004C22614693
:1012C000034819F080F9BDE8084004B0704700BF3A
:1012D0009C9A012000B585B08DF80C008DF80D109A
:1012E0004FF440530093022303AA8821034800F0DF
:1012F0002BFC0028F4D105B05DF804FB9C9A01207A
:1013000000B587B08DF80F0000238DF814304FF42E
:101310004053009301230DF10F0288210A4800F089
:1013200013FC0028F3D14FF440530093012305AA86
:101330008821054800F0D0FC0028F4D19DF8140065
:1013400007B05DF804FB00BF9C9A012000B587B090
:101350008DF80F0000238DF814308DF8153042F20F
:101360001073009301230DF10F0288210C4800F047
:10137000EBFB0028F3D142F210730093022305AA7D
:101380008821074800F0A8FC0028F4D19DF814003B
:101390009DF8153043EA002007B05DF804FB00BF5C
:1013A0009C9A012008B502210320FFF793FF0A2031
:1013B00000F0C6F804210846FFF78CFF03210A203D
:1013C000FFF788FF48212020FFF784FF022000F06C
:1013D000B7F801212120FFF77DFF00211720FFF73B
:1013E00079FFA3214120FFF775FF01214A20FFF774
:1013F00071FF01214B20FFF76DFF00214B20FFF70C
:1014000069FF07215620FFF765FF01215820FFF7EC
:1014100061FF30214020FFF75DFF31214020FFF7C1
:1014200059FFFF210B20FFF755FF01210920FFF78E
:1014300051FF08BD10B54B20FFF762FF10F0200FE1
:1014400010D0FF210B20FFF745FF4020FFF758FF8A
:1014500010F0800F21D1124B00221A805A809A80FE
:10146000012019E04D20FFF771FF0D4C20804F2027
:10147000FFF76CFF60805120FFF742FFA080012141
:101480004B20FFF727FF00214B20FFF723FFFF2111
:101490000B20FFF71FFF012010BD0020FCE700BF5D
:1014A000E8060020014B1888704700BFE8060020BE
:1014B000014B5888704700BFE806002010B504466D
:1014C0000E4B18784FF47A73B3FBF0F30C4A1068A4
:1014D000B0FBF3F000F08CF868B90F2C01D90120B3
:1014E0000AE0002221464FF0FF3000F04FF8034B96
:1014F0005C60002000E0012010BD00BF0000002063
:101500000C00002008B5032000F02EF80020FFF7A3
:10151000D5FF05F05BF9002008BD0000034A116803
:10152000034B1B780B441360704700BFE89A0120FF
:1015300000000020014B1868704700BFE89A0120A6
:1015400038B50446FFF7F6FF0546B4F1FF3F02D079
:10155000044B1B781C44FFF7EDFF401BA042FAD35D
:1015600038BD00BF000000200649CB6823F4E063CB
:101570001B041B0C000200F4E0600343024A1A4300
:10158000CA60704700ED00E00000FA0530B4154B6A
:10159000DB68C3F30223C3F10704042C28BF04242F
:1015A0001D1D062D14D9033B4FF0FF3505FA04F439
:1015B00021EA0401994005FA03F322EA03031943DF
:1015C000002807DB0901C9B2074B195430BC70472A
:1015D0000023E9E700F00F000901C9B2034B1954D9
:1015E000F4E700BF00ED00E000E400E014ED00E0EF
:1015F0000138B0F1807F0AD2064B5860064AF021CC
:1016000082F823100020986007221A60704701209A
:10161000704700BF10E000E000ED00E0042805D0B6
:10162000054A136823F0040313607047024A1368E5
:1016300043F004031360704710E000E008B504F0C5
:10164000C7FF08BD00230F2B00F2E280F0B482B088
:1016500039E0092200E00022B2403A4302346D4EE4
:1016600046F824206C4A1468EA4302EA04064F68EC
:1016700017F4803F01D045EA0406674C2660646891
:1016800002EA04064F6817F4003F01D045EA040659
:10169000614C6660A46802EA04064F6817F4801F74
:1016A00001D045EA04065C4CA660E46822404E681E
:1016B00016F4001F01D045EA0402574CE2600133E2
:1016C0000F2B00F2A28001229A400C6804EA020566
:1016D000AA42F4D14C68122C18BF022C10D1DE089B
:1016E000083650F826C003F00704A7000F24BC40BA
:1016F0002CEA040C0C69BC4044EA0C0440F8264077
:1017000004685F000326BE40F64306EA040C4C68FA
:1017100004F00304BC4044EA0C0404604C6804F187
:10172000FF3C112C18BFBCF1010F01D9122C11D1B3
:10173000846806EA040CCC68BC4044EA0C0484606B
:10174000446824EA020C4C68C4F300129A4042EA4E
:101750000C024260C26816408A68BA403243C260D6
:101760004A6812F0805FAAD02C4A546C44F480443A
:101770005464526C02F480420192019A9C08A61CA7
:10178000244A52F8267003F0030296000F22B2405A
:1017900027EA0207224A90423FF45DAF02F58062D9
:1017A000904222D002F58062904220D002F5806201
:1017B00090421ED002F5806290421CD002F58062F9
:1017C00090421AD002F58062904218D002F58062F1
:1017D000904216D002F58062904214D002F58062E9
:1017E00090423FF436AF0A2236E7012234E7022264
:1017F00032E7032230E704222EE705222CE70622F7
:101800002AE7072228E7082226E702B0F0BC704743
:10181000704700BF00380140003C014000380240E2
:101820000000024012B9090481617047816170476C
:1018300003689A6912F0020F01D000229A620368CD
:101840009A6912F0010F03D19A6942F001029A617C
:10185000704770B4039E05686868740D04F4806472
:1018600044F07F7444F4583444F47F7444F0030427
:1018700020EA0400C1F3090141EA0241194331435E
:101880000143696070BC704770B504460D4616464A
:1018900003689B6913F0100F17D023689A6912F040
:1018A000200F14D1B5F1FF3FF7D025B1FFF742FE6D
:1018B000801BA842F1D9202384F84130002384F80A
:1018C000423084F8403003201EE000201CE010224B
:1018D000DA6123682025DD612046FFF7A9FF226831
:1018E000536823F0FF7323F48B3323F4FF7323F047
:1018F000010353600423636484F84150002384F897
:10190000423084F84030012070BD70B504460D4669
:10191000164623689B6913F0020F1CD132462946F4
:101920002046FFF7B1FFC0B9B5F1FF3FF1D025B1B7
:10193000FFF700FE801BA842EBD9636C43F0200345
:101940006364202384F84130002384F8423084F813
:101950004030032000E0002070BD0120FCE7F8B516
:1019600005460F4616461C462B689B6937EA03035B
:101970000CBF01230023B34213D1B4F1FF3FF3D0D6
:101980002CB1FFF7D7FD069BC01AA042ECD920234B
:1019900085F84130002385F8423085F84030032037
:1019A00000E00020F8BD70B505460C4616462B68D1
:1019B0009B6913F0200F19D1324621462846FFF7C4
:1019C00063FFA8B924B1FFF7B5FD801BA042EED993
:1019D0006B6C43F020036B64202385F841300023B7
:1019E00085F8423085F84030032070BD0020FCE7C8
:1019F0000120FAE770B504460D46164623689B6938
:101A000013F0040F3DD1324629462046FFF73CFF34
:101A10000146002837D123689A6912F0200F12D1AD
:101A200025B1FFF787FD801BA842E7D9636C43F01F
:101A300020036364202384F84130002384F840307D
:101A40000321084670BD9A6912F0040F02D0228D5E
:101A5000002AF6D12022DA6121684B6823F0FF7357
:101A600023F48B3323F4FF7323F001034B60002333
:101A7000636484F8412084F8423084F840300121C6
:101A8000DFE70021DDE70121DBE70000002857D078
:101A900010B5044690F84130002B41D0242384F83F
:101AA00041302268136823F00103136063682268E1
:101AB00023F0706313612268936823F400439360FA
:101AC000E368012B31D0A368226843F40443936098
:101AD000E368022B2FD0226851681A4B0B435360E6
:101AE0002268D36823F40043D360236962691343F7
:101AF000A169226843EA0123D360E369216A22686D
:101B00000B4313602268136843F001031360002045
:101B10006064202384F84130206384F8420010BDC3
:101B200080F8403004F09AFEB8E7A368226843F4D6
:101B300000439360CCE723684FF400625A60CAE721
:101B400001207047008000022DE9F04383B090F837
:101B50004150EDB2202D40F0AD8090F84040012C76
:101B600000F0AD80984617460E4604464FF0010936
:101B700080F84090FFF7DEFC0546009019234A46A6
:101B80004FF400412046FFF7EAFE002840F099801C
:101B9000212384F84130102384F842300023636409
:101BA0006762A4F82A806363638D9BB2FF2B0AD916
:101BB000FF222285474B00934FF080733146204629
:101BC000FFF747FE1DE0628D92B22285414B0093E4
:101BD0004FF00073D2B231462046FFF73AFE10E0D4
:101BE000636C042B6FD1012365E0628D92B2228574
:101BF000002300934FF00073D2B231462046FFF726
:101C000028FE638D9BB2002B32D02A460A992046CB
:101C1000FFF77BFE0028E3D1636A5A1C62622268E8
:101C20001B789362638D013B9BB26385238D013BDF
:101C30009BB22385002BE4D1638D9BB2002BE0D0B7
:101C400000950A9B002280212046FFF788FE00288D
:101C50003BD1638D9BB2FF2BC7D9FF222285002386
:101C600000934FF0807331462046FFF7F2FDC8E73E
:101C70002A460A992046FFF796FE034620B1636C78
:101C8000042B24D1012316E022682021D161206891
:101C9000426822F0FF7222F48B3222F4FF7222F0AB
:101CA0000102426084F84110002284F8422084F846
:101CB000402000E00223184603B0BDE8F083022371
:101CC000F9E70323F7E70323F5E70323F3E7032308
:101CD000F1E700BF002000802DE9F04383B090F8C9
:101CE0004150EDB2202D40F0AD8090F84040012CE5
:101CF00000F0AD80984617460E4604464FF00109A5
:101D000080F84090FFF716FC0546009019234A46DC
:101D10004FF400412046FFF722FE002840F0998052
:101D2000222384F84130102384F842300023636476
:101D30006762A4F82A806363638D9BB2FF2B0AD984
:101D4000FF222285474B00934FF080733146204697
:101D5000FFF77FFD1DE0628D92B22285414B00931B
:101D60004FF00073D2B231462046FFF772FD10E00B
:101D7000636C042B6FD1012365E0628D92B22285E2
:101D8000002300934FF00073D2B231462046FFF794
:101D900060FD638D9BB2002B32D02A460A99204603
:101DA000FFF728FE0028E3D123685A6A636A591CAA
:101DB00061621A70238D013B9BB22385628D013ACB
:101DC00092B26285002BE4D1638D9BB2002BE0D0F0
:101DD00000950A9B002280212046FFF7C0FD0028C5
:101DE0003BD1638D9BB2FF2BC7D9FF2222850023F5
:101DF00000934FF0807331462046FFF72AFDC8E775
:101E00002A460A992046FFF7CEFD034620B1636CAF
:101E1000042B24D1012316E022682021D1612068FF
:101E2000426822F0FF7222F48B3222F4FF7222F019
:101E30000102426084F84110002284F8422084F8B4
:101E4000402000E00223184603B0BDE8F0830223DF
:101E5000F9E70323F7E70323F5E70323F3E7032376
:101E6000F1E700BF0024008090F84130DBB2202B66
:101E700024D190F84030012B22D0012380F840304B
:101E8000242380F841300268136823F001031360B3
:101E90000268136823F480531360026813681943BF
:101EA00011600268136843F001031360202380F877
:101EB0004130002380F840301846704702207047B8
:101EC0000220704790F84130DBB2202B22D190F8ED
:101ED0004030012B20D0012380F84030242380F8AB
:101EE00041300268136823F001031360026813682D
:101EF00023F4706343EA012111600268136843F020
:101F000001031360202380F84130002380F8403023
:101F100018467047022070470220704710B582B003
:101F20001B4B1A6C42F080521A641B6C03F08053F6
:101F30000193019B174A136843F480331360FFF742
:101F4000F9FA0446134B5B6813F4803F08D1FFF79E
:101F5000F1FA001BB0F57A7FF4D9032002B010BD6E
:101F60000C4A136843F400331360FFF7E3FA0446A6
:101F7000084B5B6813F4003F07D1FFF7DBFA001B47
:101F8000B0F57A7FF4D90320E8E70020E6E700BF48
:101F90000038024000700040002800F0DB8170B57E
:101FA00082B00446036813F0010F29D0A24B9B684E
:101FB00003F00C03042B1AD09F4B9B6803F00C0317
:101FC000082B0FD06368B3F5803F40D0002B54D16D
:101FD000994B1A6822F480321A601A6822F480221F
:101FE0001A6039E0944B5B6813F4800FEAD0924B8F
:101FF0001B6813F4003F03D06368002B00F0AC8132
:10200000236813F0020F75D08B4B9B6813F00C0FF5
:102010005ED0894B9B6803F00C03082B53D0E36818
:10202000002B00F08A80844A136843F00103136098
:10203000FFF780FA0546804B1B6813F0020F73D13F
:10204000FFF778FA401B0228F5D9032087E17A4A86
:10205000136843F48033136063682BB3FFF76AFAA5
:102060000546754B1B6813F4003FC9D1FFF762FAB0
:10207000401B6428F5D9032071E1B3F5A02F09D0E6
:102080006D4B1A6822F480321A601A6822F480229A
:102090001A60E1E7684B1A6842F480221A601A68F5
:1020A00042F480321A60D7E7FFF744FA0546624BE4
:1020B0001B6813F4003FA3D0FFF73CFA401B6428D1
:1020C000F5D903204BE15C4B5B6813F4800FA6D17C
:1020D000594B1B6813F0020F04D0E368012B01D0A9
:1020E00001203CE1544A136823F0F803216943EAD4
:1020F000C1031360236813F0080F46D0636983B3EC
:102100004D4A536F43F001035367FFF713FA054637
:10211000494B5B6F13F0020F37D1FFF70BFA401BEF
:102120000228F5D903201AE1434A136823F0F80383
:10213000216943EAC1031360DCE73F4A136823F0D7
:1021400001031360FFF7F6F905463B4B1B6813F0DC
:10215000020FCFD0FFF7EEF9401B0228F5D903207C
:10216000FDE0354A536F23F001035367FFF7E2F9AF
:102170000546314B5B6F13F0020F06D0FFF7DAF91B
:10218000401B0228F5D90320E9E0236813F0040F6F
:102190007ED0294B1B6C13F0805F1ED1264B1A6C2E
:1021A00042F080521A641B6C03F080530193019B30
:1021B0000125224B1B6813F4807F10D0A368012BEC
:1021C00021D0002B3CD11C4B1A6F22F001021A6760
:1021D0001A6F22F004021A671AE00025E9E7174A8D
:1021E000136843F480731360FFF7A4F90646134B9A
:1021F0001B6813F4807FE1D1FFF79CF9801B6428F2
:10220000F5D90320ABE00C4A136F43F001031367C9
:10221000A3685BB3FFF78EF90646074B1B6F13F0FD
:10222000020F34D1FFF786F9801B41F288339842C0
:10223000F3D9032093E000BF003802400070004053
:10224000052B09D0484B1A6F22F001021A671A6F4A
:1022500022F004021A67DBE7434B1A6F42F00402D4
:102260001A671A6F42F001021A67D1E7FFF762F9A5
:1022700006463D4B1B6F13F0020F08D0FFF75AF9CB
:10228000801B41F288339842F3D9032067E0F5B907
:10229000A369002B62D0344A926802F00C02082A2B
:1022A0005FD0022B19D0304A136823F0807313607B
:1022B000FFF740F904462C4B1B6813F0007F47D012
:1022C000FFF738F9001B0228F5D9032047E0264A1A
:1022D000136C23F080531364DAE7234A136823F066
:1022E00080731360FFF726F905461F4B1B6813F038
:1022F000007F06D0FFF71EF9401B0228F5D9032006
:102300002DE0E369226A1343626A43EA8213A26AF8
:102310005208013A43EA0243E26A43EA026343F0A5
:102320000053114A5360136843F080731360FFF742
:1023300001F904460C4B1B6813F0007F06D1FFF730
:10234000F9F8001B0228F5D9032008E0002006E078
:10235000002004E001207047012000E0002002B0CE
:1023600070BD0120FBE700BF00380240264B9B6890
:1023700003F00C03042B44D0082B01D023487047F2
:102380002DE9F04B204B5A6802F03F025B6813F4D2
:10239000800F13D01C4B5968C1F3881100231C48CF
:1023A000A1FB0001FEF77AFB174B5B68C3F3014307
:1023B00001335B00B0FBF3F0BDE8F08B124B5B68C0
:1023C000C3F388131E4600275C010025E41A65EB61
:1023D0000705A90141EA9461A001001B61EB050119
:1023E000CB0043EA5073C400A01943EB07018B02F2
:1023F00043EA90538402204619460023FEF74EFB21
:10240000D2E70348704700BF003802400024F400C0
:1024100040787D01002800F0A28070B50446524B40
:102420001B6803F00F038B420CD24F4A136823F052
:102430000F030B431360136803F00F038B4201D0AB
:10244000012070BD236813F0020F17D013F0040FA2
:1024500004D0464A936843F4E0539360236813F032
:10246000080F04D0414A936843F4604393603F4AA5
:10247000936823F0F003A068034393600D4623683C
:1024800013F0010F31D06368012B20D0022B25D02F
:10249000364A126812F0020F63D034498A6822F07B
:1024A000030213438B60FFF745F806462F4B9B68EA
:1024B00003F00C036268B3EB820F16D0FFF73AF813
:1024C000801B41F288339842F0D90320B9E7274AAC
:1024D000126812F4003FE0D10120B2E7234A1268EB
:1024E00012F0007FD9D10120ABE71F4B1B6803F02E
:1024F0000F03AB420CD91C4A136823F00F032B4384
:102500001360136803F00F03AB4201D0012098E77A
:10251000236813F0040F06D0144A936823F4E053A1
:10252000E1680B439360236813F0080F07D00F4A4C
:10253000936823F46043216943EAC1039360FFF782
:1025400015FF0A4B9B68C3F30313094AD35CD840B9
:10255000084B18600020FEF7B1FF002071E7012052
:10256000704701206DE700BF003C02400038024088
:10257000CC8903080C000020014B1868704700BF8D
:102580000C00002008B5FFF7F7FF044B9B68C3F36E
:102590008223034AD35CD84008BD00BF0038024004
:1025A000DC89030808B5FFF7E7FF044B9B68C3F31A
:1025B0004233034AD35CD84008BD00BF0038024014
:1025C000DC890308F0B583B00446036813F0010FFB
:1025D0000CD0AF4B9A6822F400029A609A68416B63
:1025E0000A439A60436BC3B1002600E000262368CB
:1025F00013F4002F15D0A64AD2F88C3023F44013E0
:10260000E16B0B43C2F88C30E36BB3F5801F06D04F
:10261000002B00F01B81002504E00126E7E70126DE
:10262000F6E70025236813F4801F0FD0984AD2F8EC
:102630008C3023F44003216C0B43C2F88C30236CA4
:10264000B3F5800F00F0048103B90125236813F06E
:10265000807F00D0012613F0200F40F0FB8023681C
:1026600013F0100F0CD08A4BD3F88C2022F080721C
:10267000C3F88C20D3F88C20A16B0A43C3F88C20BC
:10268000236813F4804F08D0814AD2F8903023F4A5
:102690004033616E0B43C2F89030236813F4004F4F
:1026A00008D07B4AD2F8903023F44023A16E0B432C
:1026B000C2F89030236813F4803F08D0744AD2F8EF
:1026C000903023F44013E16E0B43C2F8903023683E
:1026D00013F4003F08D06E4AD2F8903023F4400340
:1026E000216F0B43C2F89030236813F0400F08D0DD
:1026F000674AD2F8903023F00303616C0B43C2F8B1
:102700009030236813F0800F08D0614AD2F89030DF
:1027100023F00C03A16C0B43C2F89030236813F430
:10272000807F08D05A4AD2F8903023F03003E16C11
:102730000B43C2F89030236813F4007F08D0544A4A
:10274000D2F8903023F0C003216D0B43C2F89030D3
:10275000236813F4806F08D04D4AD2F8903023F4E8
:102760004073616D0B43C2F89030236813F4006F1F
:1027700008D0474AD2F8903023F44063A16D0B4350
:10278000C2F89030236813F4805F08D0404AD2F832
:10279000903023F44053E16D0B43C2F8903023682E
:1027A00013F4005F08D03A4AD2F8903023F4404343
:1027B000216E0B43C2F89030236813F4800F08D0C9
:1027C000334AD2F8903023F08063A16F0B43C2F8F4
:1027D0009030236813F4001F0DD02D4AD2F89030AA
:1027E00023F00063E16F0B43C2F89030E36FB3F165
:1027F000006F00F09980236813F0080F00D00125C6
:1028000013F4802F08D0224AD2F8903023F040737E
:10281000616F0B43C2F89030236813F4000F09D0A6
:102820001B4AD2F8903023F08053D4F880100B4329
:10283000C2F89030002E79D12368B3F1007F75D0B3
:10284000002D40F00681002003B0F0BD0125E9E62F
:102850000126F9E60E4B1A6C42F080521A641B6C8A
:1028600003F080530193019B0A4A136843F4807379
:102870001360FEF75FFE0746064B1B6813F4807F6C
:102880000AD1FEF757FEC01B6428F5D90320DBE709
:102890000038024000700040B34B1B6F13F44073CC
:1028A00015D0226B02F440729A4210D0AE4B1A6FD0
:1028B00022F44072196F41F480311967196F21F4C5
:1028C000803119671A671B6F13F0010F12D1236B48
:1028D00003F44072B2F5407F1DD0A34A936823F4FD
:1028E000F8139360A0490B6F226BC2F30B021343E2
:1028F0000B67B4E6FEF71EFE07469B4B1B6F13F0FB
:10290000020FE4D1FEF716FEC01B41F28833984255
:10291000F3D9032098E79448826822F4F812934987
:1029200019400A438260DDE7012564E78E4A136897
:1029300023F080631360FEF7FDFD06468A4B1B689B
:1029400013F0006F06D0FEF7F5FD801B6428F5D963
:10295000032079E7236813F0010F13D0636B8BB961
:10296000814AD2F88430D2F88410606803F440338E
:1029700043EA801301F070610B43A16843EA0173DD
:10298000C2F88430236813F4002F03D0E26BB2F551
:10299000801F06D013F4801F1ED0236CB3F5800F68
:1029A0001AD1714AD2F88430D2F88410606803F4E6
:1029B000403343EA8013E06843EA006301F0E041FA
:1029C0000B43C2F88430D2F88C3023F01F03616AC5
:1029D00001390B43C2F88C30236813F0807F11D08B
:1029E000614AD2F88400D2F88410666823691B0417
:1029F00043EA861300F07060034301F0E0410B43AB
:102A0000C2F88430236813F0007F0DD06268236918
:102A10001B0443EA8213E26843EA0263A26843EAC2
:102A20000273514AC2F884304F4A136843F08063FE
:102A30001360FEF77FFD06464B4B1B6813F0006FDB
:102A40007FF4FEAEFEF776FD801B6428F4D90320E8
:102A5000FAE6454A136823F080531360FEF76AFDD7
:102A60000546414B1B6813F0005F06D0FEF762FD80
:102A7000401B6428F5D90320E6E6236813F4002FF1
:102A800001D0E26B22B113F4801F1DD0236CDBB99F
:102A9000354AD2F88830D2F88810606903F44033A0
:102AA00043EA8013A06943EA006301F0E0410B436D
:102AB000C2F88830D2F88C3023F4F853A16A013977
:102AC00043EA0123C2F88C30236813F4001F03D0BB
:102AD000E36FB3F1006F31D0236813F0080F19D002
:102AE000214AD2F88810D2F88830606903F4403364
:102AF00043EA801301F070610B43E16943EA01731B
:102B0000C2F88830D2F88C3023F44033E16A0B43AA
:102B1000C2F88C30144A136843F080531360FEF7F8
:102B200009FD0446104B1B6813F0005F19D1FEF736
:102B300001FD001B6428F5D9032085E60A4AD2F876
:102B40008800D2F888106569236A1B0443EA85135C
:102B500000F07060034301F0E0410B43C2F888309D
:102B6000BAE7002070E600BF00380240FFFCFF0F0C
:102B70002DE9F04105460F4616469846069C2B68FF
:102B8000DB6937EA03030CBF01230023B3421DD1E5
:102B9000B4F1FF3FF3D02CB1FEF7CCFCA0EB080062
:102BA000A042ECD32A68136823F4D07313602A6818
:102BB000936823F001039360202385F8693085F83A
:102BC0006A30002385F86830032000E00020BDE86B
:102BD000F0812DE9F04182B01E4690F86930DBB2F9
:102BE000202B52D104460D469046B2FA82F35B097F
:102BF000002908BF0123002B4CD190F86830012B2D
:102C00004AD0012380F868300023C366212380F86E
:102C10006930FEF78FFC0746A4F85080A4F8528074
:102C200003E02A7823689A620135B4F852309BB2E7
:102C3000DBB1B4F85230013B9BB2A4F8523000969D
:102C40003B46002280212046FFF792FF30BBA3685D
:102C5000B3F5805FE5D12369002BE2D135F8023B63
:102C60002268C3F308039362DFE700963B46002225
:102C700040212046FFF77CFF034688B9202284F8D4
:102C80006920002284F8682000E00223184602B080
:102C9000BDE8F0810123F9E70223F7E70323F5E715
:102CA0000323F3E72DE9F04182B01E4690F86A3025
:102CB000DBB2202B75D104460D469046B2FA82F362
:102CC0005B09002908BF0123002B6ED190F8683002
:102CD000012B6CD0012380F868300023C3662223C7
:102CE00080F86A30FEF726FC0746A4F85880A4F85E
:102CF0005A80A368B3F5805F06D0A3B9236973B97E
:102D0000FF23A4F85C3011E0236923B940F2FF13DC
:102D1000A4F85C300AE0FF23A4F85C3006E07F23CF
:102D2000A4F85C3002E0B3F1805F02D0B4F85C80BC
:102D300010E023691BB97F23A4F85C30F6E73F233A
:102D4000A4F85C30F2E723685A6A5FFA88F313400C
:102D50002B700135B4F85A309BB2DBB1B4F85A305D
:102D6000013B9BB2A4F85A3000963B46002220213A
:102D70002046FFF7FDFEE0B9A368B3F5805FE2D11E
:102D80002369002BDFD123685B6A08EA030325F877
:102D9000023BDFE7202384F86A30002084F86800D3
:102DA00000E0022002B0BDE8F0810120FAE7022035
:102DB000F8E70320F6E7000010B5044683680269CF
:102DC000134342691343C2691343016808689D4A6B
:102DD000024013430B602268536823F44053E168B8
:102DE0000B435360A369226A1A4321688B6823F45A
:102DF000306313438B602368934A934219D0934AFC
:102E000093422AD0924A934240D0924A934255D05C
:102E1000914A93426AD0914A934200F08280904A4C
:102E2000934200F099808F4A934200F0B0801022C4
:102E3000C9E002F59432D2F8902002F00302032A8E
:102E400003D8DFE802F0BF0604081022BBE002222C
:102E5000B9E00422B7E00822B5E002F5FA32D2F870
:102E6000902002F00C020C2A08D8DFE802F0BA0722
:102E700007070B070707090707070D001022A2E045
:102E80000222A0E004229EE008229CE002F5F83233
:102E9000D2F8902002F03002102A0DD005D9202A55
:102EA00008D0302A04D108228DE00AB900228AE035
:102EB000102288E0022286E0042284E002F5F63245
:102EC000D2F8902002F0C002402A0DD005D9802A05
:102ED00008D0C02A04D1082275E00AB9002272E0A5
:102EE000102270E002226EE004226CE002F5F4325F
:102EF000D2F8902002F44072B2F5807F0FD007D94B
:102F0000B2F5007F09D0B2F5407F04D108225AE023
:102F10000AB9002257E0102255E0022253E00422B1
:102F200051E002F59232D2F8902002F44062B2F5FC
:102F3000806F0FD007D9B2F5006F09D0B2F5406F9E
:102F400004D108223FE00AB901223CE010223AE015
:102F5000022238E0042236E002F5E032D2F8902076
:102F600002F44052B2F5805F0FD007D9B2F5005F8E
:102F700009D0B2F5405F04D1082224E00AB900224A
:102F800021E010221FE002221DE004221BE002F5D6
:102F9000DE32D2F8902002F44042B2F5804F0FD0DA
:102FA00007D9B2F5004F09D0B2F5404F04D108223D
:102FB00009E00AB9002206E0102204E0022202E041
:102FC000042200E00122E169B1F5004F0BD0082A8C
:102FD00000F29B80DFE802F0616D799983999999FD
:102FE0008F000022EFE7082A54D8DFE802F0051727
:102FF00022533F5353534A00FFF7C4FA6268530801
:1030000003EB4003B3FBF2F39BB2002023F00F026B
:10301000C3F3420313432268D36010BDFFF7C2FA23
:103020006268530803EB4003B3FBF2F39BB200204A
:10303000ECE762680C4B03EB5203B3FBF2F39BB279
:103040000020E3E7F369FFEF001001400044004077
:1030500000480040004C0040005000400014014077
:1030600000780040007C00400048E801FFF77EF94E
:103070006268530803EB4003B3FBF2F39BB20020FA
:10308000C4E76268530803F58033B3FBF2F39BB2E5
:103090000020BBE701200023B8E7FFF773FA63685D
:1030A00000EB5300B0FBF3F0236880B2D86000203F
:1030B000B3E7FFF777FA636800EB5300B0FBF3F078
:1030C000236880B2D8600020A7E76168104A02EB4D
:1030D0005102B2FBF1F292B2DA6000209DE7FFF7F5
:1030E00045F9636800EB5300B0FBF3F0236880B24E
:1030F000D860002091E761684A0802F50042B2FBFF
:10310000F1F292B2DA60002087E7012085E700BF84
:103110000024F400436A13F0010F06D002685368DC
:1031200023F40033816A0B435360436A13F0020FA8
:1031300006D00268536823F48033C16A0B4353609E
:10314000436A13F0040F06D00268536823F4802307
:10315000016B0B435360436A13F0080F06D00268FB
:10316000536823F40043416B0B435360436A13F0ED
:10317000100F06D00268936823F48053816B0B43D1
:103180009360436A13F0200F06D00268936823F41B
:103190000053C16B0B439360436A13F0400F0AD096
:1031A0000268536823F48013016C0B435360036C73
:1031B000B3F5801F0BD0436A13F0800F06D002686E
:1031C000536823F40023816C0B43536070470268FB
:1031D000536823F4C003416C0B435360EBE710B515
:1031E00082B004460023C366FEF7A4F92268126881
:1031F00012F0080F09D1202384F8693084F86A306E
:10320000002084F8680002B010BD6FF07E43009388
:10321000034600224FF400112046FFF7A9FC0028C6
:10322000E9D00320EFE778B310B5044690F8693091
:103230000BB3242384F869302268136823F0010358
:1032400013602046FFF7B8FD012813D0636ABBB9AD
:103250002268536823F4904353602268936823F0F4
:103260002A0393602268136843F001031360204629
:10327000FFF7B5FF10BD80F8683003F019FBD8E701
:103280002046FFF747FFE3E70120704730B583B0E2
:1032900002F0A4FE664D28600EF07CF80DF10700E8
:1032A00001F054FC634C9DF807206349204617F059
:1032B000F7FB40F60801286808F052FB214607F0AA
:1032C0009FF90EF067F81FE040F60E01584B1868A2
:1032D00008F046FB594907F093F90EF05BF8584B9C
:1032E0001A6840F603039A4250D0554B1A6840F6CC
:1032F00002039A4261D00A200DF0FCF9504B1A6883
:1033000040F604039A426CD0FEF794F80DF064FA8C
:103310000DF032FF4A4B186040F60F01444B18681D
:1033200008F01EFB04F0DDFF0328D8D801A353F8F2
:1033300020F000BFC9320008453300085D330008A3
:103340007533000840F60E01394B186808F008FB89
:103350003C4907F055F90EF01DF8C0E740F60E01A4
:10336000334B186808F0FCFA374907F049F90EF0BA
:1033700011F8B4E740F60E012D4B186808F0F0FA8A
:10338000324907F03DF90EF005F8A8E70DF1070006
:1033900001F0DCFB274C9DF807202749204617F059
:1033A0007FFB40F60801224B186808F0D9FA214645
:1033B00007F026F90DF0EEFF97E740F60F011C4BE2
:1033C000186808F0CDFA04F08CFFC0B201F082FB5F
:1033D00091E7FEF72FF80DF0FFF90DF0CDFE184B39
:1033E0001860174B1A6840F604039A42F1D002F0B5
:1033F000EFF80F4D28600DF0CDFF0E4C04F10800E2
:1034000001F024FBD4ED027AFDEEE77A17EE902A64
:103410000F49204617F044FB40F60B01286808F0DE
:103420009FFA214607F0ECF80DF0B4FF03B030BD71
:10343000EC9A0120F0060020388A03083C8A030831
:1034400008000020748A0308AC8A0308EC8A030889
:10345000048B030838B502F067F9554B18600DF07E
:1034600099FF52E0534C0133E36040F60101504BA9
:10347000186808F075FAE16805F084F80DF08AFF25
:103480001420FEF75DF84B4BDB681D2BEADD01F0E5
:103490000FF8494B186010E0464C0133E36040F6EA
:1034A0000101434B186808F05BFAE16805F06AF81F
:1034B0000DF070FF1420FEF743F83E4BDB68632BE2
:1034C000EADD3D4B1B6883B3394C40F607012068A9
:1034D00008F046FA394903F00FFD40F6070120686D
:1034E00008F03EFA364903F02DFD0DF053FF0DF0C4
:1034F00051FF0A200DF0FEF80A200DF0FBF8314BC9
:103500001A6840F605039A422BD0FDF793FF0DF0A1
:1035100063F90DF031FE2B4B186040F6040398421E
:10352000EAD1244B0022DA60ADE7214C40F60701D6
:10353000206808F015FAF42103F0DEFC40F60701DC
:10354000206808F00DFA204903F0FCFC0DF022FF82
:10355000CDE7FDF76FFF0DF03FF90DF00DFE194BB4
:103560001860184B1A6840F605039A42F1D002F031
:103570002FF80F4D28600DF00DFF0E4C04F10800E0
:1035800001F064FAD4ED027AFDEEE77A17EE902AA4
:103590000E49204617F084FA40F60B01286808F01F
:1035A000DFF9214607F02CF80DF0F4FE38BD00BF1E
:1035B000EC9A0120F0060020400700201100E100F5
:1035C000088B030808000020188B0308048B0308ED
:1035D00030B583B002AC002304F8013D02F088F955
:1035E000AA4B18600DF0D6FE204601F0EFF99DF8C9
:1035F0000740032C00F2AA80DFE804F0021426350D
:10360000A34DA44B1B682B801B0CAB7040F60B0129
:103610009E4B186808F0A4F9294606F0F1FF0DF05A
:10362000B9FE93E09A4D9C4B93E803002860297102
:1036300040F60B01954B186808F092F9294606F000
:10364000DFFF0DF0A7FE81E0914D944B2B6040F61B
:103650000B018E4B186808F083F9294606F0D0FF5D
:103660000DF098FE72E08A4D8D4B2B6040F60B01F9
:10367000864B186808F074F9294606F0C1FF0DF072
:1036800089FE63E0814C40F60F01206808F068F97C
:10369000002107F0F3F840F60E01206808F060F909
:1036A000002107F0EBF84FF40161206808F058F9A9
:1036B000002107F0E3F800245DE0744C40F60D01B2
:1036C000206808F04DF9002107F0D8F840F60E0107
:1036D000206808F045F9002107F0D0F84FF40161A7
:1036E000206808F03DF9002107F0C8F801244CE0FB
:1036F000664C40F60F01206808F032F9002107F00F
:10370000BDF840F60D01206808F02AF9002107F005
:10371000B5F84FF40161206808F022F9002107F0A4
:10372000ADF802243BE05F4B1A6840F603039A426F
:103730005AD05C4B1A6840F606039A4258D0594B4F
:103740001A6840F607039A4200F0B680FDF772FE51
:103750000DF042F80DF010FD524B18600A200CF0ED
:10376000C9FF40F60D01494B186808F0F9F807F059
:10377000A3F8002886D140F60F01444B186808F0E2
:10378000EFF807F099F8002897D140F60E013F4B6B
:10379000186808F0E5F807F08FF80028A8D14FF472
:1037A00001613A4B186808F0DBF807F085F800284B
:1037B000B9D0364C40F60F01206808F0D1F800214E
:1037C00007F05CF840F60E01206808F0C9F8002107
:1037D00007F054F840F60D01206808F0C1F8002108
:1037E00007F04CF803249EE7204601F0B3F8A0E769
:1037F0000DF1070001F0EAF89DF80740032C9ED870
:10380000DFE804F002142635214D224B1B682B8083
:103810001B0CAB7040F60B011C4B186808F0A0F8AD
:10382000294606F0EDFE0DF0B5FD88E7184D1A4B60
:1038300093E803002860297140F60B01134B1868C8
:1038400008F08EF8294606F0DBFE0DF0A3FD76E7C2
:103850000F4D124B2B6040F60B010C4B186808F013
:103860007FF8294606F0CCFE0DF094FD67E7084D81
:103870000B4B2B6040F60B01044B186808F070F8F6
:10388000294606F0BDFE0DF085FD58E7EC9A0120B3
:10389000F0060020288B03082C8B030831365800D3
:1038A0003634580008000020FDF7C4FD0CF094FFEA
:1038B0000DF062FC144B1860134B1A6840F60703B6
:1038C0009A42F1D001F084FE104D28600DF062FDA7
:1038D0000F4C04F1080001F0B9F8D4ED027AFDEEC6
:1038E000E77A17EE902A0B49204617F0D9F840F6F0
:1038F0000B01286808F034F8214606F081FE0DF02F
:1039000049FD03B030BD00BF08000020EC9A012043
:10391000F0060020048B030830B583B002F0CCF829
:10392000434D28600DF036FD0DF1070000F0D2FF89
:10393000404C9DF807204049204617F0B1F840F66A
:103940000B01286808F00CF8214606F059FE0DF02E
:1039500021FD1FE00DF1070000F0BCFF354C9DF884
:1039600007203549204617F09BF840F60B01304BF5
:10397000186807F0F5FF214606F042FE0DF00AFD3B
:1039800014E00A200CF0B6FE2C4B1A6840F6070330
:103990009A4225D0FDF74EFD0CF01EFF0DF0ECFB1A
:1039A000264B186040F606039842D3D0234B1A6882
:1039B00040F603039A42E4D140F60E011C4B18680E
:1039C00007F0CEFF03F03DFFC0B200F041FFD8E7A3
:1039D000FDF730FD0CF000FF0DF0CEFB174B18602B
:1039E000164B1A6840F607039A42F1D001F0F0FD39
:1039F0000F4D28600DF0CEFC0E4C04F1080001F0D4
:103A000025F8D4ED027AFDEEE77A17EE902A0C49FC
:103A1000204617F045F840F60B01286807F0A0FF94
:103A2000214606F0EDFD0DF0B5FC03B030BD00BF42
:103A3000EC9A0120F0060020348B030808000020D7
:103A4000048B030870B582B002F0CCFC614C20609E
:103A50000DF0A0FC40F60A01206807F081FFFF226C
:103A6000012104F03FFA40F60A01206807F078FFD0
:103A7000642104F065F940F60B01206807F070FF3F
:103A8000642104F097F840F60B01206807F068FF06
:103A9000FF22012104F051F80DF1070001F0D8F8E0
:103AA0004D4D9DF807204D49284616F0F9FF40F688
:103AB0000801206807F054FF294606F0A1FD0DF02B
:103AC00069FC642614E0464B1A6840F602039A42E9
:103AD0002CD0434B1A6840F603039A4234D00A2094
:103AE0000CF008FE3E4B1A6840F604039A424AD096
:103AF000FDF7A0FC0CF070FE0DF03EFB384B18609B
:103B000040F60A01334B186807F02AFF04F008FA60
:103B1000C4B2A642D7D040F60B012E4B186807F06E
:103B20001FFF214604F046F82646CCE740F60B017D
:103B3000284B186807F014FF03F083FEC0B28DF81D
:103B4000070001F043F8C4E70DF1070001F080F829
:103B5000214C9DF807202149204616F0A1FF40F690
:103B600008011C4B186807F0FBFE214606F048FDD3
:103B70000DF010FCB3E7FDF75DFC0CF02DFE0DF031
:103B8000FBFA174B1860164B1A6840F604039A426A
:103B9000F1D001F01DFD0F4D28600DF0FBFB0E4C28
:103BA00004F1080000F052FFD4ED027AFDEEE77A4E
:103BB00017EE902A0949204616F072FF40F60B01D5
:103BC000286807F0CDFE214606F01AFD0DF0E2FB55
:103BD00002B070BDEC9A0120F0060020048B0308AF
:103BE0000800002038B501F0F3FC2D4D28600DF0E1
:103BF000D1FB2C4C04F1080000F028FFD4ED027A30
:103C0000FDEEE77A17EE902A2749204616F048FF86
:103C100040F60B01286807F0A3FE214606F0F0FCF1
:103C20000DF0B8FB14E0FFF715FC1DE0FFF7D0FC2A
:103C300020E0FFF771FE23E0FFF728FB26E00A20D3
:103C40000CF058FD194B1A6840F607039A4226D02B
:103C5000FDF7F0FB0CF0C0FD0DF08EFA134B186071
:103C600040F602039842DED0104B1A6840F6030378
:103C70009A42DBD00D4B1A6840F604039A42D8D022
:103C80000A4B1A6840F605039A42D5D0074B1A68CA
:103C900040F606039A42D2D1FFF7D4FECFE738BDF3
:103CA000EC9A0120F0060020048B03080800002095
:103CB00070B582B0474C04F12003019304F1240352
:103CC000009304F1100304F1140204F1180104F14B
:103CD0001C0000F021FC04F1280104F12C0000F08C
:103CE0007BFC04F1300104F1340000F0BBFC04F172
:103CF000380304F13C0204F1400104F1440000F0F7
:103D0000F7FC354EA369E2693146204616F0C8FE3D
:103D1000324D40F60C01286807F022FE214606F0DD
:103D20006FFC236962693146204616F0B9FE40F601
:103D30000D01286807F014FE214606F061FC236A95
:103D4000626A3146204616F0ABFE40F60E01286846
:103D500007F006FE214606F053FCA36AE26A3146EC
:103D6000204616F09DFE40F61201286807F0F8FD87
:103D7000214606F045FC236B626B3146204616F067
:103D80008FFE40F61501286807F0EAFD214606F08F
:103D900037FC236C626C3146204616F081FE40F6FB
:103DA0001601286807F0DCFD214606F029FCA36B0C
:103DB000E26B3146204616F073FE40F61701286884
:103DC00007F0CEFD214606F01BFC0DF0E3FA02B031
:103DD00070BD00BFF0060020388B0308EC9A01206C
:103DE0002DE9F04101F008FB5D4C20600DF0D2FAA6
:103DF00000231A464FF4DC714FF47F0005F0A8F859
:103E0000804600231A464FF4DC71FF2005F0A0F82D
:103E1000074640F61A01206807F0A2FD414605F06A
:103E200095FC40F61A01206807F09AFD394605F026
:103E30008DFC0DF0AFFAFFF73BFF00252E4614E096
:103E4000FFF736FF20E00EB9012623E0002621E02F
:103E500000253EBB002D49D10A200CF04BFC414B04
:103E60001A6840F604039A426CD0FDF7E3FA0CF0AE
:103E7000B3FC0DF081F93B4C20600DF08BFA226809
:103E800040F603039A42DBD0364B1B6840F61B0218
:103E90009342D8D040F61C029342DAD1002DD7D1FC
:103EA0000125D6E7304C04F1280104F12C0000F084
:103EB00093FBE36A2D4981FB0321DB17C3EBA101CF
:103EC00009B2404605F07EF8A36AE26A2849204616
:103ED00016F0E6FD40F61201214B186807F040FD90
:103EE000214606F08DFB0DF055FAB3E71E4C04F1A8
:103EF000300104F1340000F0B5FB636B1D4981FB18
:103F00000321DB17C3EBE11109B2384605F05AF87B
:103F1000236B626B1649204616F0C2FD40F6150170
:103F20000F4B186807F01CFD214606F069FB0DF0E9
:103F300031FA91E7FDF77EFA0CF04EFC0DF01CF91A
:103F4000084B1860074B1A6840F604039A42F1D0F8
:103F500001F052FF024B18600DF01CFABDE8F08131
:103F6000EC9A012008000020F006002067666666D3
:103F7000388B03081F85EB5170B588B002F062F9E9
:103F8000744D28600DF006FA02AB019303AB009369
:103F900004AB05AA06A907A800F0F8FB6E4E6F4C0B
:103FA000079A3146204616F07BFD40F60601286848
:103FB00007F0D6FC214606F023FB069A3146204640
:103FC00016F06EFD40F60701286807F0C9FC21468F
:103FD00006F016FB059A3146204616F061FD40F6C4
:103FE0000801286807F0BCFC214606F009FB049A8A
:103FF0003146204616F054FD4FF40161286807F061
:10400000AFFC214606F0FCFA039A3146204616F032
:1040100047FD40F61101286807F0A2FC214606F092
:10402000EFFA029A3146204616F03AFD40F61401A6
:10403000286807F095FC214606F0E2FA0DF0AAF98F
:1040400008E00A200CF056FB454B1A6840F60303C3
:104050009A4271D0FDF7EEF90CF0BEFB0DF08CF832
:104060003F4B186040F602039842EAD102AB01933D
:1040700003AB009304AB05AA06A907A800F086FBD2
:10408000354E364C079A3146204616F009FD314D23
:1040900040F60601286807F063FC214606F0B0FAF6
:1040A000069A3146204616F0FBFC40F607012868C8
:1040B00007F056FC214606F0A3FA059A3146204641
:1040C00016F0EEFC40F60801286807F049FC21468E
:1040D00006F096FA049A3146204616F0E1FC4FF4B9
:1040E0000161286807F03CFC214606F089FA039A32
:1040F0003146204616F0D4FC40F61101286807F03E
:104100002FFC214606F07CFA029A3146204616F032
:10411000C7FC40F61401286807F022FC214606F08F
:104120006FFA0DF037F98CE7FDF784F90CF054FBCA
:104130000DF022F80A4B1860094B1A6840F6030389
:104140009A42F1D001F058FE024B18600DF022F9AE
:1041500008B070BDEC9A0120048B0308F006002023
:104160000800002010B51F4C04F1480000F002FECA
:1041700004F1490000F090FE94F84830D3B940F6BD
:104180001801194B186807F0EBFB184906F0F0FD11
:104190000DF000F9134B93F84930BBB140F619010B
:1041A000114B186807F0DCFB114906F0E1FD0DF03A
:1041B000F1F810BD40F618010B4B186807F0D0FB62
:1041C0000B4906F0D5FD0DF0E5F8E3E740F61901DF
:1041D000054B186807F0C4FB044906F0C9FD0DF053
:1041E000D9F8E6E7F0060020EC9A0120408B03089E
:1041F000448B030838B501F051FD7A4B18600DF07F
:10420000C9F89BE0FFF7AEFF774C04F14A0104F1D7
:104210004B0000F0BDFE94F84A30032B0ED8DFE8C7
:1042200003F00217232F40F617016E4B186807F0B2
:1042300097FB6E4906F0E4F90DF0ACF86A4B93F881
:104240004B30032B00F28780DFE803F026323E4A32
:1042500040F61701634B186807F082FB644906F0CB
:10426000CFF90DF097F8E9E740F617015D4B1868B4
:1042700007F076FB5F4906F0C3F90DF08BF8DDE738
:1042800040F61701574B186807F06AFB5A4906F0C9
:10429000B7F90DF07FF8D1E740F61A01514B1868D5
:1042A00007F05EFB554906F0ABF90DF073F852E0EC
:1042B00040F61A014B4B186807F052FB504906F0C4
:1042C0009FF90DF067F846E040F61A01454B186873
:1042D00007F046FB4B4906F093F90DF05BF83AE026
:1042E00040F61A013F4B186807F03AFB464906F0C2
:1042F00087F90DF04FF82EE03B4B93F848302BB97F
:10430000012000F0E5FCFFF72DFF2AE0002000F07F
:10431000DFFCF8E7002000F06DFDFFF723FF3B4BCB
:104320001B68A3F61303012B2AD90A200CF0E2F92B
:10433000364B1A6840F603039A4246D0FDF77AF8E6
:104340000CF04AFA0CF018FF304B186040F60203EC
:1043500098423FF457AF2D4B1A6840F618039A4223
:10436000CAD02A4B1A6840F619039A42D7D11E4B7D
:1043700093F84930002BCDD1012000F03BFDCCE774
:10438000184D40F61601286807F0EAFA03F0A9FF75
:10439000C0B2154C000184F84C0040F615012868A5
:1043A00007F0DEFA03F09DFF94F84C301844C0B2D9
:1043B00084F84C0000F0B0FDB7E7FDF73BF80CF0D7
:1043C0000BFA0CF0D9FE114B1860104B1A6840F62E
:1043D00003039A42F1D001F00FFD024B18600CF07C
:1043E000D9FF38BDEC9A0120F0060020488B030865
:1043F0004C8B0308508B0308548B0308588B03081D
:10440000608B0308688B0308708B0308080000208A
:1044100008B52FE0FDF70EF80CF0DEF90CF0ACFE5D
:10442000214B18600A200CF065F91F4B1B6840F601
:10443000050140F60A028B4218BF93420FD040F6A6
:10444000070293420BD040F60802934207D040F691
:104450000602934203D040F609029342DAD1A3F652
:104460000503042B06D8DFE803F0031215181B0020
:10447000FFF7B6FC64240C4B1C6001F0BDFC0B4B39
:1044800018600CF087FF20460CF034F9CDE7FFF7F9
:1044900073FDEFE7FFF7A6FBECE7FFF7ABFEE9E7FD
:1044A00000F0C0FDE6E700BF08000020EC9A012004
:1044B00030B583B00024022C25DC00238DF80030B9
:1044C0008DF801308DF802308DF803308DF804300E
:1044D0008DF805300A20FDF733F801340B4D6423C5
:1044E00004220B492846FEF774FB64230522694623
:1044F0002846FEF7D7FB0749684616F025FB00283B
:10450000D9D0012000E0002003B030BDF09A012096
:10451000788B0308808B03082DE9F04393B007469E
:104520000E4615461C46002305E012AA1A44002137
:1045300002F8381C01331D2BF7DDFFF7B9FF0346E6
:1045400018B9184613B0BDE8F083DFF88480012263
:1045500018214046FDF766F9DFF8789064230722BA
:1045600019494846FEF735FB64231E2204A9484634
:10457000FEF798FB04A800F0B0FD04A800F0C0FD11
:1045800011AB039310AB02930FAB01930EAB0093EF
:104590000DAB0CAA0D4904A816F0A2FA0C9B3B60C7
:1045A0000D9B33600E9B2B600F9B2360109A1A9B10
:1045B0001A60119A1B9B1A60002218214046FDF7D1
:1045C00031F90123BDE700BF848B03088C8B0308FE
:1045D00000040240F09A0120F0B587B007460E466D
:1045E00000230193009305E006AA1A44002102F873
:1045F000101C01330E2BF7DD164C0122182120462A
:10460000FDF710F9144D1E23072214492846FEF722
:10461000E0FA1E230E2202A92846FEF743FB02A859
:1046200000F042FD02A800F058FD02A800F068FD6D
:104630006B4601AA0A4902A816F052FA019B3B6098
:10464000009B3360002218212046FDF7EBF8012083
:1046500007B0F0BD00040240F09A0120A08B0308CF
:10466000988B0308F0B587B007460E4600230193E8
:10467000009305E006AA1A44002102F8101C013339
:104680000E2BF7DD164C012218212046FDF7CAF843
:10469000144D1E23072214492846FEF79AFA1E23BA
:1046A0000E2202A92846FEF7FDFA02A800F0FCFC43
:1046B00002A800F012FD02A800F022FD6B4601AA3C
:1046C0000A4902A816F00CFA019B3B60009B33607C
:1046D000002218212046FDF7A5F8012007B0F0BD03
:1046E00000040240F09A0120A88B0308988B03086D
:1046F0002DE9F0438BB004460D4616461F460023B5
:1047000005E00AAA1A44002102F8201C01331D2BDF
:10471000F7DDFFF7CDFE034618B918460BB0BDE82C
:10472000F083DFF86080012218214046FDF77AF817
:10473000DFF8549064230B2210494846FEF749FAEB
:1047400064231E2202A94846FEF7ACFA02A800F034
:10475000ABFC02A800F0C1FC02A800F0D1FC01975C
:1047600000962B462246064902A816F0B9F9002207
:1047700018214046FDF756F80123CEE7B08B030819
:10478000BC8B030800040240F09A01202DE9F0439D
:104790009DB007460E4615461C46002305E01CAAA0
:1047A0001A44002102F8601C0133462BF7DDFFF7A5
:1047B0007FFE034618B918461DB0BDE8F083DFF848
:1047C0008880012218214046FDF72CF8DFF87C9004
:1047D000642307221A494846FEF7FBF96423462260
:1047E00004A94846FEF75EFA04A800F05DFC04A8A0
:1047F00000F073FC04A800F083FC1BAB03931AAB1E
:10480000029319AB019318AB009317AB16AA0D498D
:1048100004A816F065F9169B3B60179B3360189B44
:104820002B60199B23601A9A249B1A601B9A259B64
:104830001A60002218214046FCF7F4FF0123BAE772
:10484000C88B03088C8B030800040240F09A0120F7
:1048500010B584B00446002305E004AA1A440021E0
:1048600002F8101C01330E2BF7DDFFF721FE034683
:1048700010B9184604B010BD012218211248FCF7E7
:10488000D1FF3220FCF75CFEFF2C01D0012C18D99F
:1048900022460E49684616F003F90D4CC8230E2235
:1048A00069462046FEF795F9C8230A226946204644
:1048B000FEF7F8F9002218210348FCF7B3FF0123A3
:1048C000D7E70124E4E700BF00040240D08B0308CF
:1048D000F09A012070B584B00446002305E004AAD4
:1048E0001A44002102F8101C01330E2BF7DDFFF7EC
:1048F000DFFD034620B909222270184604B070BDBE
:10490000114D012218212846FCF78CFF3220FCF7BC
:1049100017FE0E4EC8230A220D493046FEF759F9FC
:10492000C8230A2269463046FEF7BCF9684600F003
:10493000D4FB684615F008FE207000221821284696
:10494000FCF770FF0123D8E700040240F09A012031
:10495000E08B030830B585B00446002305E004AAC7
:104960001A44002102F8101C01330E2BF7DDFFF76B
:104970009FFD034610B9184605B030BD104D012209
:1049800018212846FCF74EFF3220FCF7D9FD2246BD
:104990000C49684616F084F80B4CC8230922694676
:1049A0002046FEF716F9C8230A2269462046FEF77C
:1049B00079F9002218212846FCF734FF0123DAE7B1
:1049C00000040240EC8B0308F09A012070B584B01B
:1049D0000446002305E004AA1A44002102F8101C32
:1049E00001330E2BF7DDFFF763FD034620B90922E3
:1049F0002270184604B070BD114D012218212846BE
:104A0000FCF710FF3220FCF79BFD0E4EC823072257
:104A10000D493046FEF7DDF8C8230A2269463046C4
:104A2000FEF740F9684600F058FB684615F08CFD2B
:104A30002070002218212846FCF7F4FE0123D8E755
:104A400000040240F09A0120F88B030870B584B08E
:104A50000446002305E004AA1A44002102F8101CB1
:104A600001330E2BF7DDFFF723FD034620B90022AB
:104A70002260184604B070BD134D0122182128464B
:104A8000FCF7D0FE3220FCF75BFD104EC823082255
:104A90000F493046FEF79DF8C8230A226946304682
:104AA000FEF700F9684600F018FB684615F049FD6E
:104AB00051EC100BFBF7A2FF2060002218212846C2
:104AC000FCF7B0FE0123D4E700040240F09A012075
:104AD000008C030830B585B00446002305E004AA25
:104AE0001A44002102F8101C01330E2BF7DDFFF7EA
:104AF000DFFC034610B9184605B030BD104D012249
:104B000018212846FCF78EFE3220FCF719FD2246BC
:104B10000C49684615F0C4FF0B4CC8230A226946AD
:104B20002046FEF756F8C8230A2269462046FEF7BB
:104B3000B9F8002218212846FCF774FE0123DAE7B1
:104B400000040240088C0308F09A012070B584B07C
:104B50000446002305E004AA1A44002102F8101CB0
:104B600001330E2BF7DDFFF7A3FC034620B9092222
:104B70002270184604B070BD114D0122182128463C
:104B8000FCF750FE3220FCF7DBFC0E4EC823082257
:104B90000D493046FEF71DF8C8230A226946304603
:104BA000FEF780F8684600F098FA684615F0CCFCED
:104BB0002070002218212846FCF734FE0123D8E794
:104BC00000040240F09A0120188C030810B584B04C
:104BD0000446002305E004AA1A44002102F8101C30
:104BE00001330E2BF7DDFFF763FC034610B91846BF
:104BF00004B010BD012218211248FCF713FE322028
:104C0000FCF79EFCFF2C01D0012C18D922460E493E
:104C1000684615F045FF0D4CC8230E226946204614
:104C2000FDF7D7FFC8230A2269462046FEF73AF867
:104C3000002218210348FCF7F5FD0123D7E70124E2
:104C4000E4E700BF00040240248C0308F09A01202E
:104C500070B584B00446002305E004AA1A4400217C
:104C600002F8101C01330E2BF7DDFFF721FC034681
:104C700020B909222270184604B070BD114D0122DE
:104C800018212846FCF7CEFD3220FCF759FC0E4EC9
:104C9000C82309220D493046FDF79BFFC8230A228D
:104CA00069463046FDF7FEFF684600F016FA684692
:104CB00015F04AFC2070002218212846FCF7B2FDAE
:104CC0000123D8E700040240F09A0120348C030845
:104CD00030B585B00446002305E004AA1A4400213B
:104CE00002F8101C01330E2BF7DDFFF7E1FB034642
:104CF00010B9184605B030BD012218211948FCF73B
:104D000091FD3220FCF71CFCC4B9174A6B4607CA58
:104D100003C31A80154CC823092269462046FDF7B3
:104D200058FFC8230A2269462046FDF7BBFF002230
:104D300018210C48FCF776FD0123DAE76C460C4B92
:104D400093E8070084E80700084DC8230B2221469A
:104D50002846FDF73EFFC8230A2221462846FDF7D4
:104D6000A1FFE4E700040240408C0308F09A012010
:104D70004C8C030870B584B00446002305E004AAF7
:104D80001A44002102F8101C01330E2BF7DDFFF747
:104D90008FFB034620B909222270184604B070BD6B
:104DA000114D012218212846FCF73CFD3220FCF76A
:104DB000C7FB0E4EC82307220D493046FDF709FFF9
:104DC000C8230A2269463046FDF76CFF684600F0AA
:104DD00084F9684615F0B8FB207000221821284697
:104DE000FCF720FD0123D8E700040240F09A0120DF
:104DF000588C030830B585B00446002305E004AAAA
:104E00001A44002102F8101C01330E2BF7DDFFF7C6
:104E10004FFB034610B9184605B030BD01221821DA
:104E20001948FCF7FFFC3220FCF78AFBC4B9174A8B
:104E30006B4607CA03C31A80154CC823092269466A
:104E40002046FDF7C6FEC8230A2269462046FDF724
:104E500029FF002218210C48FCF7E4FC0123DAE7C3
:104E60006C460C4B93E8070084E80700084DC82304
:104E70000B2221462846FDF7ACFEC8230A22214614
:104E80002846FDF70FFFE4E700040240608C0308AA
:104E9000F09A01206C8C030870B584B0044600239E
:104EA00005E004AA1A44002102F8101C01330E2B5D
:104EB000F7DDFFF7FDFA034620B9092222701846F4
:104EC00004B070BD114D012218212846FCF7AAFC40
:104ED0003220FCF735FB0E4EC82307220D49304621
:104EE000FDF777FEC8230A2269463046FDF7DAFE51
:104EF000684600F0F2F8684615F026FB20700022A4
:104F000018212846FCF78EFC0123D8E70004024054
:104F1000F09A0120788C030830B585B00446002350
:104F200005E004AA1A44002102F8101C01330E2BDC
:104F3000F7DDFFF7BDFA034610B9184605B030BDDE
:104F4000104D012218212846FCF76CFC3220FCF79A
:104F5000F7FA22460C49684615F0A2FD0B4CC8230F
:104F60000A2269462046FDF734FEC8230A22694614
:104F70002046FDF797FE002218212846FCF752FC38
:104F80000123DAE700040240808C0308F09A012034
:104F90002DE9F04184B006460D46002305E004AA41
:104FA0001A44002102F8101C01330E2BF7DDFFF725
:104FB0007FFA034618B9184604B0BDE8F081164FD1
:104FC000012218213846FCF72DFC3220FCF7B8FAF4
:104FD0006C46124B93E8030084E80300DFF840803E
:104FE000C8230A2221464046FDF7F3FDC8230A22C2
:104FF00021464046FDF756FE9DF80030303B3370A9
:105000009DF80130303B2B70002218213846FCF708
:1050100009FC0123CFE700BF000402408C8C030889
:10502000F09A012030B58FB0002305E00EAA1A4493
:10503000002102F8341C0133312BF7DDFFF738FA79
:10504000034610B918460FB030BD134C0122182189
:105050002046FCF7E7FB4FF4FA70FCF771FA0F4DAE
:10506000642307220E492846FDF7B3FD4FF47A73F7
:10507000322201A92846FDF715FE002218212046FC
:10508000FCF7D0FB074901A815F05EFD08B101232C
:10509000D8E70023D6E700BF00040240F09A0120C1
:1050A000948C0308808B030810B50446FBF776FE4A
:1050B000014600230AE0E2185278E25401334A1E06
:1050C0009A42F8DC421E0023A35401338B4203DAD8
:1050D000E25C202AF9D1F2E710BD38B50446FBF7AF
:1050E0005DFE0138002525542046FBF757FE0138A8
:1050F00025542046FBF752FE01382023235438BDA7
:1051000010B50446FBF74AFE002300E0013383425A
:1051100007DAE25C2E2A18BF2C2AF7D12022E254AB
:10512000F4E710BD20B942F666230B6001487047D2
:1051300000207047B4D5010870B584B004460368F8
:105140001D2B05D0262B00F0328107F095FD2CE1B8
:105150006FF07F41406801F0C4FC40F601016068D7
:1051600006F0FEFB0546944901F0ECFE9349284603
:1051700001F011FF0E21284601F0D1FE40F6030197
:10518000606806F0EDFB8E4905F0F2FD40F6040183
:10519000606806F0E5FB8B4905F0EAFD40F6050185
:1051A000606806F0DDFB0546874901F0CBFE0E2165
:1051B000284601F0B4FE8549284601F0ECFE8449FA
:1051C000284601F099FE40F60601606806F0C8FB2B
:1051D000054603A90020FFF7A5FF039A01462846CC
:1051E00003F0A4FA40F60C01606806F0B9FB06462D
:1051F000784D294605F004FA0E21304605F0B8FA3C
:1052000040F60D01606806F0ABFB0646294605F046
:10521000F7F90E21304605F0ABFA40F60E01606852
:1052200006F09EFB0646294605F0EAF90E213046B7
:1052300005F09EFA40F60F01606806F091FB064605
:105240000E2101F06CFE6449304601F07BFE4FF404
:105250000161606806F084FB06460E2101F05FFEE6
:105260005E49304601F06EFE40F61101606806F0BE
:1052700077FB06465A4901F065FE0E21304601F0E3
:105280004EFE40F61201606806F06AFB06462946AB
:1052900005F0B6F90E21304605F06AFA40F6130122
:1052A000606806F05DFB06464E4901F04BFE0E219C
:1052B000304601F034FE4FF47F01304601F01CFE11
:1052C00040F61401606806F04BFB06460E2101F023
:1052D00026FE4549304601F035FEFF21304601F0FB
:1052E0000BFE40F61501606806F03AFB06462946BB
:1052F00005F086F90E21304605F03AFA40F616011F
:10530000606806F02DFB0646294605F079F90E2166
:10531000304605F02DFA40F61701606806F020FBD4
:105320000646294605F06CF90E21304605F020FAB4
:1053300040F61801606806F013FB05462B4901F0A2
:1053400001FE0E21284601F0EAFD40F619016068D1
:1053500006F006FB0546264901F0F4FD0E2128461D
:1053600001F0DDFD40F61A01606806F0F9FA054625
:10537000022100910B460A4604F027FA00226FF042
:105380007F41284604F004FA40F61B01606806F0ED
:10539000E7FA184D294605F0EBFC40F61C01606861
:1053A00006F0DEFA294605F0E3FC04B070BD806823
:1053B00006F090FAF9E700BF8C8E0308BCB503082D
:1053C0009C8C0308A48C0308AC8C030868C30308F6
:1053D000D00C06007C8B0308BC8C0308C08C03082F
:1053E000C48C0308C88C0308D08C0308D88C03082D
:1053F000DC8C0308E08C030800B583B006F0B4FA37
:105400000023019300930346034A1721034805F044
:10541000C0F903B05DF804FB3951000830D301082E
:1054200020B942F666230B600148704700207047A0
:105430008801020870B582B0044603681D2B05D0B0
:10544000262B00F0A38007F017FC9DE06FF07F4152
:10545000406801F046FB40F60101606806F080FA02
:1054600005464C4901F06EFD4B49284601F093FD7D
:105470000E21284601F053FD40F60201606806F057
:105480006FFA464905F074FC40F60301606806F0C7
:1054900067FA434905F06CFC40F60401606806F0C9
:1054A0005FFA404905F064FC40F60501606806F0CB
:1054B00057FA3D4905F05CFC40F60601606806F0CD
:1054C0004FFA3A4905F054FC40F60701606806F0CF
:1054D00047FA374905F04CFC40F60801606806F0D1
:1054E0003FFA0546334901F02DFD0E21284601F013
:1054F00016FD3149284601F04EFD3049284601F09D
:10550000FBFC40F60901606806F02AFA054601A98D
:105510000020FFF785FF019A0146284603F006F9AF
:1055200040F60A01606806F01BFA06460E2101F0FB
:10553000F6FC234D2946304601F02DFD2149304629
:1055400001F000FD40F60B01606806F009FA06461E
:105550001D4905F055F82946304605F013F80E218F
:10556000304605F005F940F60C01606806F0F8F9E0
:105570000446164901F0E6FC0E21204601F0CFFC5E
:105580002946204601F007FD02B070BD806806F094
:10559000A1F9F9E7188D0308BCB50308308D03089D
:1055A000E88D0308408D0308548D0308608D0308BF
:1055B000A48C0308AC8C030868C30308D00C060055
:1055C00038E30308748D03087C8B03088C8D030873
:1055D00000B583B006F0C8F9002301930093034699
:1055E000034A0D21034805F0D4F803B05DF804FB2D
:1055F000355400081C00020820B942F666230B60EF
:105600000148704700207047D02C020870B582B066
:10561000044603681D2B04D0262B6ED007F02CFB0C
:1056200069E040F60101406806F09AF9354902F058
:1056300068FE40F60201606806F092F9054601A98D
:105640000020FFF7D9FF019A0146284603F06EF8C3
:1056500040F60301606806F083F905462A4901F027
:1056600071FC0E21284601F05AFC2849284601F019
:1056700092FC40F60401606806F072F90646244D7B
:10568000294605F09EFB2349304605F071FB40F6A4
:105690000501606806F064F90646294605F091FBAD
:1056A0001D49304605F064FB40F60701606806F0CE
:1056B00057F90646194D294601F06DFC1849304648
:1056C00001F040FC0E21304601F029FC40F60801B3
:1056D000606806F045F904460E2101F020FC2946D9
:1056E000204601F058FC0F49204601F02BFCF42124
:1056F000204601F001FC02B070BD806806F0EAF8B7
:10570000F9E700BFD4920308948D0308BCB50308E1
:1057100038E30308A48D0308AC8D030868C30308AD
:10572000B48D03087C8B030800B583B006F01CF928
:105730000023019300930346034A0821034805F020
:1057400028F803B05DF804FB0D560008F02B0208A2
:1057500020B942F666230B6001487047002070476D
:10576000A458020870B582B0044603681D2B05D00A
:10577000262B00F09A8007F07FFA94E06FF07F41CB
:10578000406801F0AEF940F60101606806F0E8F803
:105790000546484901F0D6FB4749284601F0FBFB86
:1057A0000E21284601F0BBFB40F60301606806F0BD
:1057B000D7F8424905F0DCFA40F60601606806F0C9
:1057C000CFF83F4905F0D4FA40F60701606806F0CB
:1057D000C7F83C4905F0CCFA40F60801606806F0CD
:1057E000BFF80546384901F0ADFB0E21284601F00F
:1057F00096FB3649284601F0CEFB3549284601F094
:105800007BFB40F60901606806F0AAF8054601A98D
:105810000020FFF79DFF019A0146284602F086FF0F
:1058200040F60A01606806F09BF805460E2101F07B
:1058300076FB284E3146284601F0ADFB2649284626
:1058400001F080FB40F60B01606806F089F8054620
:10585000224904F0D5FE3146284604F093FE0E217D
:10586000284604F085FF40F60D01606806F078F8E0
:105870001B4904F0E0FF40F60F01606806F070F885
:10588000184904F0D8FF40F60E01606806F068F889
:10589000154904F0D0FF4FF40161606806F060F82C
:1058A000124904F0C8FF02B070BD806806F012F81B
:1058B000F9E700BFD08D0308BCB50308E48D0308E9
:1058C0009C8C0308A48C0308AC8C030868C30308F1
:1058D000D00C0600ECD90308F08D03087C8B03087C
:1058E000288B03082C8B0308008E0308048E030802
:1058F00000B583B006F038F8002301930093034607
:10590000034A0D21034804F044FF03B05DF804FB93
:10591000655700083857020820B942F666230B6025
:1059200001487047002070474084020870B582B07B
:10593000044603681D2B05D0262B00F09D8007F040
:105940009BF997E06FF07F41406801F0CAF840F69C
:105950000101606806F004F80546494901F0F2FAD1
:105960004849284601F017FB0E21284601F0D7FAD6
:1059700040F60301606805F0F3FF434905F0F8F9CC
:1059800040F60601606805F0EBFF404905F0F0F9CC
:1059900040F60701606805F0E3FF3D4905F0E8F9CE
:1059A00040F60801606805F0DBFF0546394901F063
:1059B000C9FA0E21284601F0B2FA3749284601F00B
:1059C000EAFA3649284601F097FA40F6090160687C
:1059D00005F0C6FF054601A90020FFF79DFF019ACB
:1059E0000146284602F0A2FE40F60A01606805F072
:1059F000B7FF05460E2101F092FA294E314628469E
:105A000001F0C9FA2749284601F09CFA40F60B013B
:105A1000606805F0A5FF0546234904F0F1FD234920
:105A2000284604F0AFFD0E21284604F0A1FE40F602
:105A30000C01606805F094FF05461D4901F082FAEB
:105A40003146284601F0A7FA0E21284601F067FAF0
:105A500040F60E01606805F083FF0446154901F029
:105A6000DFFFFF220121204602F067F83B2120469C
:105A700002F0A0F802B070BD806805F02BFFF9E7D6
:105A8000148E0308BCB50308348E03089C8C0308ED
:105A9000A48C0308AC8C030868C30308D00C060070
:105AA00038E30308408E03087C8B0308ECD9030815
:105AB000408D030820F6030800B583B005F054FFBD
:105AC0000023019300930346034A0B21034804F08B
:105AD00060FE03B05DF804FB2D5900080C8302083A
